:020000040800F2
:1000000000000120CD2E0008ED060008F1060008D2
:10001000F5060008F9060008FD06000800000000CB
:1000200000000000000000000000000001070008C0
:100030000507000800000000090700080D07000878
:100040001D2F00081D2F00081D2F00081D2F000860
:100050001D2F00081D2F00081D2F00081D2F000850
:100060001D2F00081D2F00081D2F00081D2F000840
:100070001D2F00081D2F00081D2F00081D2F000830
:100080001D2F00081D2F00081D2F00081D2F000820
:10009000190700081D2F00081D2F00081D2F00083C
:1000A0001D2F00081D2F00081D2F00081D2F000800
:1000B0001D2F00081D2F00081D2F00081D2F0008F0
:1000C0001D2F00081D2F00081D2F00081D2F0008E0
:1000D0001D2F00081D2F00081D2F00081D2F0008D0
:1000E0001D2F00081D2F00081D2F00081D2F0008C0
:1000F0001D2F00081D2F00081D2F00081D2F0008B0
:100100001D2F000800000000000000001D2F000847
:100110001D2F00081D2F00081D2F00081D2F00088F
:100120001D2F00081D2F00081D2F00081D2F00087F
:100130001D2F00081D2F0008000000000000000017
:100140001D2F00081D2F00081D2F000800000000B3
:10015000000000000000000000000000000000009F
:100160001D2F00081D2F00081D2F00081D2F00083F
:100170001D2F00081D2F00081D2F00081D2F00082F
:100180001D2F00081D2F00080000000000000000C7
:040190001D2F000817
:10019400044B05481B1A062B02D9044B03B118471C
:1001A400704700BF0F0000200C000020000000007A
:1001B40005490648091A891001EBD171491002D08A
:1001C400034B03B1184770470C0000200C000020BB
:1001D4000000000010B5064C237843B9FFF7D8FFA0
:1001E400044B13B10448AFF300800123237010BD06
:1001F4000C000020000000006C2F000808B5084B1C
:100204001BB108480849AFF300800848036813B9D4
:10021400BDE80840CCE7064B002BF9D09847F7E738
:10022400000000006C2F0008100000200C000020CB
:1002340000000000FEE700BF00B5A7B009231C932F
:100244004FF4A0231D9301231F9321930223229390
:100254004FF4803323934FF4E01324930023259326
:100264001CA801F0CBFE18B11D489321FFF7E2FF53
:100274000F23179302211891002319934FF48062DE
:100284001A921B9317A802F007FA18B11448A12177
:10029400FFF7D0FF134B0193002305934FF4007233
:1002A400029216930F9301A802F0FAFA18B10C48BF
:1002B400AC21FFF7BFFF02F0C1FA0B4BA3FB0030E8
:1002C400800902F0A1FD042002F0B4FD4FF0FF30DC
:1002D40000210A4602F05AFD27B05DF804FB00BF76
:1002E400842F000804001300D34D621008B501F0F8
:1002F40061FEFFF7A1FF00F015F800F0A1F800F08F
:100304006FF900F0B5F900F0F5F8054C204600212E
:1003140000F096FD2046042100F092FDFEE700BFA8
:10032400480000202DE9F0418CB0404B5A6942F45A
:1003340000225A615A6902F400220192019A5A6910
:1003440042F480025A615A6902F480020292029ACB
:100354005A6942F400325A615A6902F40032039233
:10036400039A5A6942F480225A615A6902F480223B
:100374000492049A5A6942F480125A615A6902F446
:1003840080120592059A5A6942F400025A615B6927
:1003940003F400030693069BDFF8A08040464FF465
:1003A4008141002202F0DAFC214F3846402100222C
:1003B40002F0D4FC1F4D28464FF40071002202F0D5
:1003C400CDFC4FF4005307931B4B0893002409946E
:1003D400284607A902F0E4FB4FF481430793012662
:1003E400089609940A94404607A902F0D9FB4023D1
:1003F4000793089609940A94384607A902F0D0FB9B
:100404008023079308940994384607A902F0C8FB8F
:100414004FF400730793089609940A94284607A991
:1004240002F0BEFB0CB0BDE8F08100BF001002403A
:10043400001800480008004800001110000400489B
:1004440008B50A480A4B0360002343607F22826098
:10045400FF22C26003614361836100F0E5F918B1D2
:1004640004484021FFF7E6FE08BD00BF2800002035
:1004740000280040902F00080268074B9A420AD1D6
:100484004FF4004292FAA2F2B2FA82F2034B1344FE
:100494009B0001221A6070470028004000819010E0
:1004A4000368B3F1804F0CD182B003F50433DA69E9
:1004B40042F00102DA61DB6903F001030193019B5D
:1004C40002B070470368B3F1804F12D100B587B012
:1004D4000F23019302230293002303930493012324
:1004E40005934FF0904001A902F05AFB07B05DF864
:1004F40004FB704700B58FB037484FF0804303606A
:10050400472343600023836044F61F62C260036193
:10051400836100F085FA18B130484021FFF78AFE64
:100524000EA94FF4805341F8103D2B4800F0E8FB2E
:1005340018B12A484621FFF77DFE274800F08CFABF
:1005440018B126484B21FFF775FE00230793099342
:10055400214807A900F0BCFD18B120485221FFF73B
:1005640069FE6023009340F24B4301930022029200
:1005740004921948694600F00FFD18B117485B2131
:10058400FFF758FE40F26B73019313486946042247
:1005940000F002FD18B111486121FFF74BFE002362
:1005A40001930D486946082200F0F6FC18B10B4887
:1005B4006721FFF73FFE084869460C2200F0ECFC77
:1005C40018B106486C21FFF735FE0348FFF77AFFA0
:1005D4000FB05DF804FB00BF480000209C2F00080A
:1005E40008B50C480C4B03604FF4164343600023DA
:1005F4008360C36003610C2242618361C36103624F
:10060400436200F0B3FF18B104484421FFF712FE1F
:1006140008BD00BF8800002000480040A82F000843
:100624000268114B9A421ED100B587B003F5E4333A
:10063400DA6942F48022DA61DB6903F480230093EF
:10064400009B4FF44073019302230293002303930E
:100654000323049307230593044801A902F0A0FA95
:1006640007B05DF804FB704700480040000C0048E8
:1006740008B50A480A4B03600823436002228260DB
:100684000023C36002618361C361036200F0A4FFBD
:1006940018B104484021FFF7CDFD08BDF800002043
:1006A400005C0040B42F000802680E4B9A4217D138
:1006B40000B583B003F5DA33DA6942F40002DA6193
:1006C400DB6903F400030193019B142000210A4613
:1006D40002F05CFB142002F08BFB03B05DF804FB1A
:1006E400704700BF005C0040704700BFFEE700BFDA
:1006F400FEE700BFFEE700BFFEE700BF704700BF94
:10070400704700BF704700BF08B501F065FC02F0F8
:10071400A3FB08BD08B5024801F068FB08BD00BF93
:10072400F800002000B583B0214B9A6942F0010221
:100734009A619A6902F001020092009ADA6942F021
:100744008052DA61DB6903F080530193019B03203B
:1007540002F00AFB6FF00B0000210A4602F016FBC0
:100764006FF00A0000210A4602F010FB6FF0090046
:1007740000210A4602F00AFB6FF0040000210A4639
:1007840002F004FB6FF0030000210A4602F0FEFAB7
:100794006FF0010000210A4602F0F8FA4FF0FF3032
:1007A40000210A4602F0F2FA03B05DF804FB00BF30
:1007B4000010024038B504460268D36823F0A00351
:1007C400D36001F015FC054605E001F011FC401B67
:1007D400B0F57A7F06D82368DB6813F0200FF4D0D5
:1007E400002038BD032038BD38B50368DA6812F03C
:1007F400400F14D104464FF0FF32DA6001F0F8FBE9
:10080400054605E001F0F4FB401BB0F57A7F08D8FB
:100814002368DB6813F0400FF4D0002038BD0020BB
:1008240038BD032038BD00BF38B500285AD004466F
:10083400437F13F0FF0F03D100230377FFF71CFE60
:10084400022363772368CA225A62236853225A62B6
:100854002046FFF7C9FF054630B12368FF225A62DC
:100864000423637701253EE02268936823F4E003C0
:1008740023F04003936021688868636822691A43FF
:100884006369134303438B602368E2681A61226837
:100894001369A16843EA014313612268D36823F012
:1008A4008003D36023689B6813F0200F0AD120468D
:1008B400FFF780FF30B12368FF225A620423637775
:1008C400012510E02268136C23F48023136422684A
:1008D400116CA3690B4313642368FF225A6201233A
:1008E400637700E00125284638BD00BF10B4036AD1
:1008F400046A24F001040462846924F0F00444EAE4
:10090400021223F00A031943826101625DF8044B69
:10091400704700BF10B4036A23F0100303628469B4
:10092400036A24F4704444EA023223F0A00343EA45
:100934000111826101625DF8044B7047836823F002
:10094400700341F007010B4383607047704700BF99
:100954000368324A904212D0B0F1804F0FD0A2F512
:10096400943290420BD002F58062904207D002F597
:100974009632904203D002F5E052904203D123F024
:1009840070034A681343254A90421ED0B0F1804F49
:100994001BD0A2F59432904217D002F580629042A7
:1009A40013D002F5963290420FD002F54062904285
:1009B4000BD002F58062904207D002F5806290422B
:1009C40003D002F50062904203D123F44073CA6855
:1009D400134323F080034A69134303608B68C362A3
:1009E4000B6883620D4B984213D003F50063984261
:1009F4000FD003F5406398420BD003F5806398420F
:100A040007D003F58063984203D003F5006398424E
:100A140001D10B690363012343617047002C01403A
:100A2400C0B110B5044690F83D3013F0FF0F04D167
:100A3400002380F83C30FFF733FD022384F83D3077
:100A4400214651F8040BFFF783FF012384F83D305E
:100A5400002010BD01207047C0B110B5044690F8C5
:100A64003D3013F0FF0F04D1002380F83C30FFF732
:100A74006DFF022384F83D30214651F8040BFFF743
:100A840067FF012384F83D30002010BD012070472A
:100A940030B4036A23F001030362036A4468826981
:100AA40022F4803222F073020D682A4323F00203F9
:100AB4008D682B43204DA84213D005F50065A8424C
:100AC4000FD005F54065A8420BD005F58065A84216
:100AD40007D005F58065A84203D005F50065A84256
:100AE40005D123F00803CD682B4323F00403124DF2
:100AF400A84213D005F50065A8420FD005F540655E
:100B0400A8420BD005F58065A84207D005F580659D
:100B1400A84203D005F50065A84205D124F4407429
:100B24004D692C438D692C43446082614A68426359
:100B3400036230BC704700BF002C014030B4036A2C
:100B440023F010030362036A4468826922F080720E
:100B540022F4E6420D6842EA052223F020038D6860
:100B640043EA05131B4DA84207D005F50065A842CA
:100B740003D005F5E055A84206D123F08003CD68E3
:100B840043EA051323F04003124DA84213D005F5A0
:100B94000065A8420FD005F54065A8420BD005F5C5
:100BA4008065A84207D005F58065A84203D005F505
:100BB4000065A84207D124F440644D6944EA8504E1
:100BC4008D6944EA8504446082614A6882630362F1
:100BD40030BC7047002C014030B4036A23F48073A6
:100BE4000362036A4468C26922F4803222F0730209
:100BF4000D682A4323F400738D6843EA05231C4DD2
:100C0400A84207D005F50065A84203D005F5E055D4
:100C1400A84206D123F40063CD6843EA052323F4F4
:100C24008063134DA84213D005F50065A8420FD088
:100C340005F54065A8420BD005F58065A84207D0AC
:100C440005F58065A84203D005F50065A84207D1E3
:100C540024F440544D6944EA05148D6944EA0514AA
:100C64004460C2614A68C263036230BC704700BF1B
:100C7400002C014030B4036A23F480530362036AF6
:100C84004468C26922F0807222F4E6420D6842EAA6
:100C9400052223F400538D6843EA0533114DA8421D
:100CA40013D005F50065A8420FD005F54065A842AC
:100CB4000BD005F58065A84207D005F58065A842EC
:100CC40003D005F50065A84204D124F480444D699D
:100CD40044EA85144460C2614A680264036230BC19
:100CE400704700BF002C014010B4846824F47F4492
:100CF40042EA032319430C4384605DF8044B7047B4
:100D040090F83C30012B00F0888010B50B46044667
:100D1400012280F83C20022280F83D200168886886
:100D24003F4A02408A601A68402A52D00AD8102AE0
:100D34005ED002D8002A56D068E0202A5DD0302A3E
:100D440060D063E0702A14D004D8502A2DD0602AD1
:100D540035D05BE0B2F5805F03D0B2F5005F18D008
:100D640054E02268936823F4803323F007039360EC
:100D74004CE0206899685A68DB68FFF7B5FF226881
:100D8400936823F4803323F0770343F0770393606D
:100D94003CE0206899685A68DB68FFF7A5FF226881
:100DA400936843F48043936030E020685968DA68BC
:100DB400FFF79CFD20685021FFF7C0FD26E0206866
:100DC4005968DA68FFF7A6FD20686021FFF7B6FDD1
:100DD4001CE020685968DA68FFF788FD2068402124
:100DE400FFF7ACFD12E020680021FFF7A7FD0DE03E
:100DF40020681021FFF7A2FD08E020682021FFF7FA
:100E04009DFD03E020683021FFF798FD012384F85D
:100E14003D30002084F83C0010BD0220704700BF24
:100E24008800FEFF10B401238B40046A24EA030304
:100E34000362036A8A401A4302625DF8044B7047F6
:100E440010B5044600680122FFF7ECFF2368184A36
:100E5400934215D002F50062934213D002F540622A
:100E6400934211D002F5806293420FD002F5806262
:100E740093420DD002F5006293420BD101220AE0A5
:100E8400012208E0012206E0012204E0012202E03E
:100E9400012200E000221AB15A6C42F400425A6462
:100EA4002268136843F001031360002010BD00BFE3
:100EB400002C014030B4036A23F480330362036AD4
:100EC4004468426D22F4803222F070020D682A4395
:100ED40023F400338D6843EA0543114DA84213D02F
:100EE40005F50065A8420FD005F54065A8420BD072
:100EF40005F58065A84207D005F58065A84203D0B2
:100F040005F50065A84204D124F480344D6944EA0F
:100F14000524446042654A688265036230BC7047B8
:100F2400002C014030B4036A23F480130362036A83
:100F34004468426D22F0807222F4E0420D6842EA75
:100F4400052223F400138D6843EA0553114DA8428A
:100F540013D005F50065A8420FD005F54065A842F9
:100F64000BD005F58065A84207D005F58065A84239
:100F740003D005F50065A84204D124F480244D690A
:100F840044EA8524446042654A68C265036230BC11
:100F9400704700BF002C014038B590F83C30012B5D
:100FA40000F093800D460446012380F83C30022370
:100FB40080F83D30142A00F28180DFE802F00B7FD4
:100FC4007F7F1E7F7F7F327F7F7F457F7F7F597F3B
:100FD4007F7F6C000068FFF75BFD2268936943F034
:100FE400080393612268936923F0040393612268E0
:100FF40091692B690B43936160E00068FFF79EFDE4
:101004002268936943F4006393612268936923F42B
:101014008063936122689369296943EA0123936198
:101024004CE00068FFF7D8FD2268D36943F0080359
:10103400D3612268D36923F00403D3612268D169A0
:101044002B690B43D36139E00068FFF713FE226874
:10105400D36943F40063D3612268D36923F48063C2
:10106400D3612268D369296943EA0123D36125E066
:101074000068FFF71FFF2268536D43F008035365B0
:101084002268536D23F0040353652268516D2B6964
:101094000B43536512E00068FFF744FF2268536D69
:1010A40043F4006353652268536D23F480635365EE
:1010B4002268536D296943EA01235365012384F8A7
:1010C4003D30002084F83C0038BD022038BD00BF0C
:1010D40090F83C30012B25D030B4012380F83C300B
:1010E400026853689468114DAA4207D005F500655B
:1010F400AA4203D005F5E055AA4203D123F47003B4
:101104004D682B4323F070030D682B4324F08004B7
:1011140089682143536003689960002380F83C3058
:10112400184601E00220704730BC7047002C014093
:1011340038B50446826803691A4343691A43C3698C
:101144001343016808689C4A024013430B602168FA
:101154004B6823F44052E36813434B60A269236A4B
:10116400134321688A6822F4306213438B60256834
:10117400924B9D4212D103F558431B6B03F00303BA
:10118400032B09D8DFE803F00204067E012384E080
:10119400042382E0082380E010237EE0884B9D42F4
:1011A40019D103F5E6331B6B03F44033B3F5803FE9
:1011B4000BD001D83BB10CE0B3F5003F07D0B3F539
:1011C400403F61D005E0002367E0042365E0082385
:1011D40063E0102361E07B4B9D4219D103F5E433B6
:1011E4001B6B03F44023B3F5802F0BD001D83BB124
:1011F4000CE0B3F5002F07D0B3F5402F46D005E03F
:1012040000234AE0042348E0082346E0102344E096
:101214006D4B9D4219D103F5E2331B6B03F440136C
:10122400B3F5801F0BD001D83BB10CE0B3F5001F20
:1012340007D0B3F5401F2BD005E000232DE0042395
:101244002BE0082329E0102327E0604B9D4221D1A5
:1012540003F5E0331B6B03F44003B3F5800F0BD0AD
:1012640001D83BB10CE0B3F5000F07D0B3F5400F44
:1012740012D005E0002310E004230EE008230CE064
:1012840010230AE0022308E0022306E0022304E01C
:10129400022302E0102300E00223E269B2F5004FCA
:1012A40047D1082B3BD8DFE803F005101B3A263A58
:1012B4003A3A310001F0C8FA63685A0802EB400078
:1012C400B0FBF3F39BB200202BE001F0D3FA636888
:1012D4005A0802EB4000B0FBF3F39BB2002020E07D
:1012E40061684A0802F5740303F51053B3FBF1F384
:1012F4009BB2002015E001F097F963685A0802EBED
:101304004000B0FBF3F39BB200200AE0626853088C
:1013140003F58033B3FBF2F39BB2002001E001201C
:10132400002323F00F02C3F3420313432268D36064
:1013340038BD082B3DD8DFE803F005101B3C273CE3
:101344003C3C320001F080FA636800EB5300B0FBD0
:10135400F3F080B2E860002038BD01F08BFA6368D6
:1013640000EB5300B0FBF3F080B2E860002038BD1E
:1013740061684A0802F5F40303F59053B3FBF1F3F3
:101384009BB2EB60002038BD01F04EF9636800EBBE
:101394005300B0FBF3F080B2E860002038BD62680F
:1013A400530803F50043B3FBF2F39BB2EB60002058
:1013B40038BD012038BD00BFF369FFEF003801409C
:1013C4000044004000480040004C004000500040F1
:1013D400436A13F0010F06D001684B6823F400320E
:1013E400836A13434B60436A13F0020F06D001680B
:1013F4004B6823F48032C36A13434B60436A13F08F
:10140400040F06D001684B6823F48022036B134356
:101414004B60436A13F0080F06D001684B6823F44D
:101424000042436B13434B60436A13F0100F06D022
:1014340001688B6823F48052836B13438B60436A87
:1014440013F0200F06D001688B6823F40052C36B9D
:1014540013438B60436A13F0400F11D001684B684B
:1014640023F48012036C13434B60036CB3F5801FA9
:1014740006D101684B6823F4C002436C13434B60EC
:10148400436A13F0800F06D001684B6823F40022EE
:10149400836C13434B6070472DE9F04106460C46BC
:1014A40017469846069D1EE0B5F1FF3F1BD02DB1AF
:1014B40000F09EFDC8EB0000A84214D932681368FE
:1014C40023F4D07313603268936823F001039360AC
:1014D400202386F8693086F86A30002386F868305D
:1014E4000320BDE8F0813368DB692340A34214BFC5
:1014F40000230123BB42D7D00020BDE8F08100BF08
:1015040030B583B004460023C36600F071FD054680
:1015140023681B6813F0080F0AD06FF07E43009312
:1015240020464FF4001100222B46FFF7B5FFC0B947
:1015340023681B6813F0040F0AD06FF07E430093F6
:1015440020464FF4800100222B46FFF7A5FF50B937
:10155400202384F8693084F86A30002084F8680015
:1015640002E0032000E0032003B030BD80B310B5D7
:10157400044690F8693013F0FF0F04D1002380F87B
:101584006830FFF74DF8242384F869302268136823
:1015940023F0010313602046FFF7CAFD012819D088
:1015A400636A13B12046FFF713FF2268536823F4DC
:1015B400904353602268936823F02A03936022685F
:1015C400136843F0010313602046FFF799FF10BD31
:1015D4000120704710BD00BF002851D038B5044623
:1015E40090F8713313F0FF0F04D1002380F87033A7
:1015F400FFF75AF8032384F8713300220FE0D30075
:101604009B1A9B002344012183F8291083F8282086
:10161400002183F82B1059639963D96301326568FB
:101624009542ECD8002211E0D3009B1A9B0023447E
:10163400002183F8CD1183F8CC2183F8CF11C3F8AE
:10164400D811C3F8DC11C3F8E0110132AA42EBD37C
:1016540022680123A2F8403022680020A2F840004A
:101664002268A2F844002268A2F8500022684FF4CD
:101674003F41A2F8401084F8240084F8713338BD47
:1016840001207047704700BF704700BF704700BF1C
:10169400704700BF704700BF704700BF704700BF6E
:1016A40090F87033012B0FD0012380F8703321B9E7
:1016B40003688022A3F84C2001E080F82410002362
:1016C40080F87033184670470220704730B401F038
:1016D4007F01CC00641AA4000444C4F8DC21C4F8DB
:1016E400E0310025C4F8E45184F8CD5184F8CC11DC
:1016F400D4F8D821934208D9C1EBC104A40004440E
:101704009B1AC4F8E031134606E0C1EBC102920013
:1017140002440024C2F8E041C1EBC1029200024439
:1017240092F8D6213ABB0468B4F85050C1EBC10218
:101734009200024492F8CC21D20012FA85F21444A9
:101744003E2B0DD9C3F34F1213F01F0F01D1013AF1
:1017540092B26FEAC2626FEA5242A4F806244AE0E7
:10176400C3F34F0213F0010F01D0013292B292027F
:10177400A4F806243FE0C1EBC1029200024492F8AF
:10178400CD213ABB0468B4F85050C1EBC1029200B9
:10179400024492F8CC21D20012FA85F214443E2B72
:1017A4000DD9C3F34F1213F01F0F01D1013A92B2B6
:1017B4006FEAC2626FEA5242A4F806241BE0C3F344
:1017C4004F0213F0010F01D0013292B29202A4F839
:1017D400062410E0012A0ED10468B4F85050C1EB7D
:1017E400C1029200024492F8CC21D20012FA85F28E
:1017F4001444A4F806340268C1EBC1018900014411
:1018040091F8CC1132F821309BB223F4804323F0B9
:10181400700383F4405343F4004343F0800322F8FD
:101824002130002030BC7047F8B5054601F07F0434
:10183400E100091B890001448A63CB6300220A6426
:10184400012281F8292081F828404A6B934207D964
:10185400C4EBC401890001449B1ACB63134605E021
:10186400C4EBC402920002440021D163C4EBC4025D
:1018740092002A4492F83220B2B99FB2E600361B95
:10188400B6002E442868B16BB28D3B4600F040FB95
:101894002B68B3F8501096F82820D20012FA81F27F
:1018A4001344A3F802744BE02868C4EBC40292000A
:1018B4002A4492F8282030F8222002F0400292B202
:1018C4002AB1C4EBC40292002A44128E04E0C4EB91
:1018D400C40292002A44D28DE100091B89006E18CB
:1018E400B16B9BB200F014FB96F829309BB92A68BF
:1018F400C4EBC4039B002B4493F8281032F8213026
:1019040023F0F0031B051B0D43F4004343F0C00315
:1019140022F8213014E0012B12D12A68C4EBC4034D
:101924009B002B4493F8281032F8213023F0F00365
:101934001B051B0D43F4404343F0800322F8213080
:101944002A68C4EBC404A4002C4494F8281032F888
:1019540021309BB223F4E04323F0400383F03003AF
:1019640043F4004343F0800322F821300020F8BD03
:1019740070B582B005460023ADF8043029E2BDF805
:10198400064014F00F0440F0BE80BDF8063003F0AA
:1019940010039BB28BBB03889BB223F4E14323F077
:1019A40070039BB203802B68B3F8501095F828207D
:1019B400D20012FA81F21344B3F80234C3F30903D8
:1019C4002B64AA6B1344AB6328460021FFF75CFE2B
:1019D40095F8243013F0FF0F00F0FB81EB6B002B24
:1019E40040F0F7812A6895F8243043F08003A2F888
:1019F4004C30002385F82430EBE103889BB2ADF82A
:101A04000430BDF8043003F400639BB2F3B1B0F8C2
:101A1400502095F8CC31DB0013FA82F30344B3F879
:101A24000634C3F30903C5F8E43105F55D71B5F86F
:101A3400D02100F081FA2A68138823F070031B0573
:101A44001B0D13802846FFF721FEC2E1BDF80430C8
:101A54001BB2002B80F2BD81038823F070031B05A9
:101A64001B0D03802868B0F8502095F8CC31DB00BA
:101A740013FA82F30344B3F80634C3F30903C5F835
:101A8400E43163B1D5F8DC11B5F8D02100F054FA93
:101A9400D5F8DC21D5F8E4311344C5F8DC31284607
:101AA4000021FFF7EFFD2968B1F8503011FA83F1F6
:101AB400D5F8D8313E2B0DD9C3F34F1213F01F0FB5
:101AC40001D1013A92B26FEAC2626FEA5242A1F8BE
:101AD400062409E0C3F34F0213F0010F01D00132D1
:101AE40092B29202A1F806242A6813889BB223F4C6
:101AF400804323F0700383F4405343F4004343F0E2
:101B04008003138065E12B6833F824309BB2ADF871
:101B14000430BDF804301BB2002B80F2A88030F8EA
:101B2400243023F070031B051B0D20F82430C4EB74
:101B3400C4039B002B4493F8D631F3B92868B0F85A
:101B44005020C4EBC4039B002B4493F8CC31DB003E
:101B540013FA82F30344B3F80664C6F30906002EAD
:101B640058D0E3001B1B9B002B44D3F8DC11B3F8C3
:101B7400D021334600F0E0F94CE02868C4EBC403FC
:101B84009B002B4493F8CC2130F8223003F480439B
:101B94009BB2B3B1B0F85030D20012FA83F20244CF
:101BA400B2F80264C6F309060EB3E3001B1B9B00E4
:101BB4002B44D3F8DC11B3F8D221334600F0BCF93E
:101BC40015E0B0F85030D20012FA83F20244B2F8B1
:101BD4000664C6F3090656B1E3001B1B9B002B44A5
:101BE400D3F8DC11B3F8D421334600F0A5F92A6800
:101BF400C4EBC4039B002B4493F8CC1132F821307E
:101C040023F0F0031B051B0D43F4004343F0C00312
:101C140022F82130E3001B1B9B002B44D3F8E42162
:101C24003244C3F8E421D3F8DC213244C3F8DC2184
:101C340003F5EC739B683BB1C4EBC40189002944F0
:101C4400D1F8D8118E4209D2C4EBC4039B002B44B3
:101C5400284693F8CC11FFF715FD08E0C4EBC40146
:101C640089002944284691F8CC11FFF72FFDBDF8CF
:101C7400043003F080039BB2002B00F0AA802A6892
:101C840032F824309BB223F4E14323F070039BB277
:101C940022F82430C4EBC4039B002B4493F8323065
:101CA400E3B92868B0F85010E3001B1B9B00EA1846
:101CB40092F82830DB0013FA81F30344B3F80234BA
:101CC400C3F309031364002B59D0E200121B9200E2
:101CD4002A44916B928D00F01BF950E02868C4EB04
:101CE400C4039B002B4493F8282030F8223003F0DF
:101CF40040039BB2C3B1B0F85030D20012FA83F261
:101D04000244B2F80234C3F30903C4EBC4029200E0
:101D14002A44136403B3E200121B92002A44916B19
:101D2400D28D00F0F5F817E0B0F85030D20012FA76
:101D340083F20244B2F80634C3F30903C4EBC402C9
:101D440092002A4413643BB1E200121B92002A441D
:101D5400916B128E00F0DCF82A68C4EBC4039B007C
:101D64002B4493F8281032F8213023F0F0031B059C
:101D74001B0D43F4404343F0800322F821302A68CA
:101D8400B2F85000E3001B1B9B002B4493F828106F
:101D9400C90011FA80F10A44B2F80224C2F309021C
:101DA4001A64996B0A449A63DB6B4BB9C4EBC404A1
:101DB400A4002C44284694F82810FFF765FC08E09A
:101DC400C4EBC404A4002C44284694F82810FFF75C
:101DD4002BFD2868B0F844309BB2ADF8063013F4FC
:101DE400004F7FF4CCAD002002B070BD10B50446A6
:101DF4000368B3F844301BB2002B01DAFFF7B8FDD7
:101E04002268B2F8443003F480639BB253B14FF6B6
:101E1400FF33A2F844302046FFF73CFC2046002163
:101E2400FFF73EFC2268B2F8443003F480439BB2CF
:101E34001BB14BF6FF73A2F844302268B2F8443069
:101E440003F400539BB21BB14DF6FF73A2F8443068
:101E54002268B2F8443003F480539BB2C3B1B2F8A1
:101E6400403023F004031B041B0CA2F8403022680A
:101E7400B2F8403023F008031B041B0CA2F84030D6
:101E84002046FFF70BFC23684EF6FF72A3F84420AC
:101E94002268B2F8443003F400639BB2EBB1B2F8A9
:101EA40040309BB243F00803A2F8403023684FF25D
:101EB400FF72A3F844202268B2F840309BB243F08A
:101EC4000403A2F840302368B3F8443003F4805389
:101ED4009BB213B92046FFF7DFFB2268B2F8443007
:101EE40003F400739BB233B14FF6FF53A2F84430AE
:101EF4002046FFF7CDFB2268B2F8443003F4807328
:101F04009BB21BB14FF6FF63A2F8443010BD00BF73
:101F140010B401335B08024402F5806207E00C78D8
:101F2400487844EA002414800231013B0232002B39
:101F3400F5D15DF8044B704770B45E08024402F5B5
:101F4400806208E014880D4605F8024B240A4C70A0
:101F5400013E02322946002EF4D113F0010F01D0C4
:101F640013880B7070BC704710B504460E4B18787C
:101F74004FF47A73B3FBF0F30C4A1068B0FBF3F040
:101F840000F042FF58B90F2C0BD84FF0FF30214618
:101F9400002200F0FBFE064B1C60002010BD012057
:101FA40010BD012010BD00BF040000200800002067
:101FB4000000002008B5074A136843F010031360BB
:101FC400032000F0D1FE0020FFF7CEFFFEF7AAFBAE
:101FD400002008BD00200240034A13680349097821
:101FE4000B441360704700BFA004002004000020CD
:101FF400014B1868704700BFA0040020002800F0BF
:10200400EA8270B582B00446036813F0010F00F051
:102014009880B54B5B6803F00C03042B0CD0B24BD7
:102024005B6803F00C03082B1DD1AF4B5B6803F412
:10203400C033B3F5803F16D14FF4003393FAA3F3C2
:10204400A94B19684FF4003393FAA3F3B3FA83F35B
:1020540003F01F03012202FA03F3194271D06368EB
:10206400002B6ED1B9E26368B3F5803F05D19E4A77
:10207400136843F48033136026E063B903F18043AB
:1020840003F504331A6822F480321A601A6822F4C1
:1020940080221A6018E0B3F5A02F0CD103F180431D
:1020A400A3F53C331A6842F480221A601A6842F499
:1020B40080321A6008E08C4B1A6822F480321A606D
:1020C4001A6822F480221A606368EBB1FFF790FF6C
:1020D400054605E0FFF78CFF401B642800F27F8271
:1020E4004FF4003393FAA3F37F4B19684FF4003392
:1020F40093FAA3F3B3FA83F303F01F03012202FA62
:1021040003F31942E6D01CE0FFF772FF054605E031
:10211400FFF76EFF401B642800F263824FF4003324
:1021240093FAA3F3704B19684FF4003393FAA3F3B3
:10213400B3FA83F303F01F03012202FA03F31942F3
:10214400E6D1236813F0020F00F09280664B5B68BF
:1021540013F00C0F0CD0644B5B6803F00C03082BDA
:1021640029D1614B5B6803F4C033B3F5004F22D12E
:10217400022393FAA3F35C4B1968022393FAA3F3A3
:10218400B3FA83F303F01F03012202FA03F31942A3
:1021940003D0E368934240F026825348036823F057
:1021A400F8012369F82292FAA2F2B2FA82F2934079
:1021B4000B4303605CE0E3689BB3012292FAA2F351
:1021C400B3FA83F303F1845303F584139B001A6079
:1021D400FFF70EFF054605E0FFF70AFF401B022844
:1021E40000F20382022393FAA3F33F4B19680223FC
:1021F40093FAA3F3B3FA83F303F01F03012202FA61
:1022040003F31942E8D03848036823F0F80123693E
:10221400F82292FAA2F2B2FA82F293400B430360DC
:1022240026E0012393FAA3F3B3FA83F303F184536F
:1022340003F584139B0000221A60FFF7D9FE0546BC
:1022440005E0FFF7D5FE401B022800F2D0810223EF
:1022540093FAA3F3244B1968022393FAA3F3B3FA72
:1022640083F303F01F03012202FA03F31942E8D1B6
:10227400236813F0080F55D063693BB3012191FA29
:10228400A1F2B2FA82F2194B13449B001960FFF7D2
:10229400AFFE054605E0FFF7ABFE401B022800F247
:1022A400A881022393FAA3F293FAA3F293FAA3F276
:1022B4000D4A516A93FAA3F3B3FA83F303F01F03AD
:1022C400012202FA03F31942E5D02BE0012292FA2B
:1022D400A2F2B2FA82F2054B13449B0000221A6068
:1022E400FFF786FE054609E00010024020819010A9
:1022F400FFF77EFE401B022800F27D81022393FA41
:10230400A3F293FAA3F293FAA3F2BE4A516A93FAA0
:10231400A3F3B3FA83F303F01F03012202FA03F3D6
:102324001942E5D1236813F0040F00F0B880B54BCF
:10233400DB6913F0805F0BD1B24BDA6942F0805253
:10234400DA61DB6903F080530193019B012500E00E
:102354000025AD4B1B6813F4807F13D1AA4A136880
:1023640043F480731360FFF743FE064605E0FFF76E
:102374003FFE801B642800F24081A34B1B6813F4CA
:10238400807FF4D0A368012B05D19E4A136A43F0E1
:102394000103136222E063B903F1804303F50433BC
:1023A4001A6A22F001021A621A6A22F004021A62FC
:1023B40014E0052B09D1934B1A6A42F004021A6205
:1023C4001A6A42F001021A6208E08E4B1A6A22F07D
:1023D40001021A621A6A22F004021A62A36863B341
:1023E400FFF706FE064607E0FFF702FE801B41F2F8
:1023F4008833984200F20381022393FAA3F293FAFA
:10240400A3F3B3FA83F343F040035B09022B02D135
:102414007C4B196A04E0022393FAA3F3794B596ABB
:10242400022393FAA3F3B3FA83F303F01F03012205
:1024340002FA03F31942D7D02BE0FFF7D9FD064681
:1024440007E0FFF7D5FD801B41F28833984200F284
:10245400DD80022393FAA3F293FAA3F3B3FA83F38E
:1024640043F040035B09022B02D1664B196A04E076
:10247400022393FAA3F3634B596A022393FAA3F357
:10248400B3FA83F303F01F03012202FA03F31942A0
:10249400D7D125B15B4AD36923F08053D361A369B3
:1024A400002B00F0B580574A526802F00C02082A4B
:1024B40000F0B080022B63D14FF0807393FAA3F342
:1024C400B3FA83F303F1845303F584139B000022CE
:1024D4001A60FFF78DFD054605E0FFF789FD401BF7
:1024E400022800F299804FF0007393FAA3F3454B4E
:1024F40019684FF0007393FAA3F3B3FA83F303F06C
:102504001F03012202FA03F31942E6D13D49CB6AC3
:1025140023F00F02636A1343CB624B6823F47610F3
:10252400236AE269134303434B604FF0807393FAC9
:10253400A3F3B3FA83F303F1845303F584139B00E9
:1025440001221A60FFF754FD044604E0FFF750FD32
:10255400001B022862D84FF0007393FAA3F3294BAF
:1025640019684FF0007393FAA3F3B3FA83F303F0FB
:102574001F03012202FA03F31942E7D0002050E0BE
:102584004FF0807393FAA3F3B3FA83F303F1845304
:1025940003F584139B0000221A60FFF729FD04460B
:1025A40004E0FFF725FD001B022839D84FF0007323
:1025B40093FAA3F3134B19684FF0007393FAA3F340
:1025C400B3FA83F303F01F03012202FA03F319425F
:1025D400E7D1002025E001207047012021E00320FD
:1025E4001FE003201DE001201BE0032019E003206D
:1025F40017E0032015E0032013E0032011E003207B
:102604000FE000BF0010024000700040032008E00B
:10261400002006E0012004E0032002E0032000E0A3
:10262400032002B070BD00BF174B5A6802F00C03C0
:10263400082B26D102F470114FF4701393FAA3F30C
:10264400B3FA83F321FA03F31049CB5C0E49C96A48
:1026540001F00F010F2090FAA0F0B0FA80F0C14011
:102664000B48405C12F4803F05D00A4AB2FBF0F0FC
:1026740003FB00F07047074AB2FBF0F003FB00F0E5
:1026840070470448704700BF00100240D02F000874
:10269400C02F000800127A00002800F0B98070B53D
:1026A4000446624B1B6803F007038B420BD25F4A5C
:1026B400136823F007030B431360136803F0070345
:1026C4008B4240F0A780236813F0020F06D05848CD
:1026D400436823F0F002A368134343600D46236864
:1026E40013F0010F56D06268012A13D14FF400335E
:1026F40093FAA3F34E4B18684FF4003393FAA3F301
:10270400B3FA83F303F01F03012101FA03F3184220
:1027140027D181E0022A13D14FF0007393FAA3F377
:10272400434B18684FF0007393FAA3F3B3FA83F39F
:1027340003F01F03012101FA03F3184211D16DE0E4
:10274400022393FAA3F33A4B1868022393FAA3F3F0
:10275400B3FA83F303F01F03012101FA03F31842D0
:102764005ED033494B6823F0030313434B60FFF7F8
:102774003FFC064606E0FFF73BFC801B41F2883332
:1027840098424FD82A4B5B6803F00C036268B3EBA2
:10279400820FF0D1254B1B6803F00703AB420AD923
:1027A400224A136823F007032B431360136803F0D2
:1027B4000703AB4238D1236813F0040F06D01C4939
:1027C4004B6823F4E062E36813434B60236813F01F
:1027D400080F07D0164A536823F46053216943EA6B
:1027E400C1035360FFF720FF114B5B6803F0F00354
:1027F400F02292FAA2F2B2FA82F2D3400D4AD35CEA
:10280400D8400D4B18600020FFF7AEFB002070BDD0
:1028140001207047012070BD012070BD012070BDF2
:10282400012070BD032070BD012070BD0020024056
:1028340000100240E02F000808000020014B186837
:10284400704700BF0800002008B5FFF7F7FF074BEB
:102854005B6803F4E0634FF4E06292FAA2F2B2FA26
:1028640082F2D340024AD35CD84008BD0010024033
:10287400F02F000808B5FFF7E1FF074B5B6803F48E
:1028840060534FF4605292FAA2F2B2FA82F2D34049
:10289400024AD35CD84008BD00100240F02F000863
:1028A400F0B583B00446036813F4803F00F09180D0
:1028B400364BDB6913F0805F0BD1344BDA6942F09D
:1028C4008052DA61DB6903F080530193019B012597
:1028D40000E000252E4B1B6813F4807F13D12C4A93
:1028E400136843F480731360FFF782FB064605E028
:1028F400FFF77EFB801B642800F24981244B1B6890
:1029040013F4807FF4D0214B1B6A13F4407354D02A
:10291400626802F440729A424FD01C4E306A20F42E
:1029240040774FF4803191FAA1F3B3FA83F3194A53
:1029340013449B004FF0010EC3F800E091FAA1F19B
:10294400B1FA81F10A44920000231360376210F057
:10295400010F32D0FFF74CFB064607E0FFF748FBB8
:10296400801B41F28833984200F21381022393FAC8
:10297400A3F293FAA3F3B3FA83F343F040035B099E
:10298400022B09D1014B196A0BE000BF0010024071
:102994000070004000819010022393FAA3F37F4B50
:1029A400596A022393FAA3F3B3FA83F303F01F03E0
:1029B400012202FA03F31942D0D078490B6A23F4B6
:1029C4004072636813430B621DB1CB6923F08053DB
:1029D400CB61236813F0010F06D070490B6B23F011
:1029E4000302A36813430B63236813F0020F06D09A
:1029F4006A490B6B23F44032E36813430B63236887
:102A040013F0040F06D065490B6B23F440222369AD
:102A140013430B63236813F0200F06D05F490B6B3D
:102A240023F01002E36913430B63236813F4003F9C
:102A340006D05A494B6823F48002636D13434B60FC
:102A4400236813F0400F06D054490B6B23F0200287
:102A5400236A13430B63236813F4802F06D04F4972
:102A64000B6B23F04002636A13430B63236813F078
:102A7400080F06D049490B6B23F4401263691343D2
:102A84000B63236813F0100F06D044490B6B23F437
:102A94004002A36913430B63236813F4007F06D039
:102AA4003E494B6823F40002236B13434B602368B5
:102AB40013F0800F06D03949CB6A23F4F872A36A65
:102AC4001343CB62236813F4807F06D03349CB6A67
:102AD40023F47852E36A1343CB62236813F4805FD0
:102AE40006D02E490B6B23F48072636B13430B6384
:102AF400236813F4005F06D028490B6B23F400729B
:102B0400236C13430B63236813F4801F06D02349FB
:102B14000B6B23F08072A36B13430B63236813F4D2
:102B2400001F06D01D490B6B23F00072E36B1343A7
:102B34000B63236813F4800F06D018490B6B23F43E
:102B44008062636C13430B63236813F4000F06D095
:102B540012490B6B23F40062A36C13430B632368C9
:102B640013F0807F06D00D490B6B23F40052E36C05
:102B740013430B63236813F0007F0CD007490B6BDE
:102B840023F40042236D13430B63002004E003206D
:102B940002E0032000E0002003B0F0BD001002407A
:102BA4002DE9F04182B00023C7E001249C4022407B
:102BB40000F0C2804D68022D01D0122D14D14FEACD
:102BC400D30808F1080850F8287003F0070E4FEAFC
:102BD4008E0E0F2505FA0EF527EA05060D6905FA8E
:102BE4000EF5354340F8285006684FEA430E032596
:102BF40005FA0EF5ED4305EA06074E6806F00306EE
:102C040006FA0EF63E4306604E68771E012F03D97E
:102C1400112E01D0122E12D1866805EA0607CE685D
:102C240006FA0EF63E438660476827EA04074E68B4
:102C3400C6F3001404FA0CF646EA07044460C468B8
:102C44002C408D6805FA0EF52543C5604C6814F0D8
:102C5400805F71D03D4CA56945F00105A561A4696B
:102C640004F001040194019C9C08A61C384D55F8FD
:102C7400266003F00307BF000F25BD4026EA0506C2
:102C8400B0F1904F24D0334DA8421FD005F5806594
:102C9400A84219D005F58065A84213D005F58065D2
:102CA400A8420DD005F58065A84207D005F58065DA
:102CB400A84201D106250CE007250AE0052508E015
:102CC400042506E0032504E0022502E0012500E0D6
:102CD4000025BD40354302341D4E46F824501E4C99
:102CE4002568D44304EA05064F6817F4803F01D0F1
:102CF40042EA0506184D2E606D6804EA05064F6821
:102D040017F4003F01D042EA0506134D6E60AD682A
:102D140004EA05064F6817F4801F01D042EA05064D
:102D24000D4DAE60ED682C404E6816F4001F01D0C6
:102D340042EA0504084AD46001330A689C4632FA20
:102D440003F47FF432AF02B0BDE8F081001002401A
:102D54000000014000040048000401400AB1816100
:102D640070478162704700BF00F00700064AD368CD
:102D740023F4E0631B041B0C43EA002040F0BF6013
:102D840040F40030D060704700ED00E030B4164BE2
:102D9400DC68C4F30224C4F10705042D28BF04250C
:102DA400231D062B01D9033C00E00024012303FA70
:102DB40005F5013D2940A140A340013B1A400A43C7
:102DC400002806DA00F00F001201D2B2074B1A54A1
:102DD40007E01201D2B200F1604000F5614080F8D2
:102DE400002330BC704700BF00ED00E014ED00E0AC
:102DF400410900F01F0001238340024A42F82130B8
:102E0400704700BF00E100E00138B0F1807F0AD2D2
:102E1400064B5860F021064A82F82310002098607F
:102E240007221A6070470120704700BF10E000E0DD
:102E340000ED00E0042805D1054A136843F00403BB
:102E440013607047024A136823F004031360704749
:102E540010E000E0704700BF08B5FFF7FBFF08BDB6
:102E64001549D1F8883043F47003C1F88830134B06
:102E74001A6842F001021A605868114A02405A6006
:102E84001A6822F0847222F480321A601A6822F4DA
:102E940080221A605A6822F4FE025A60DA6A22F02A
:102EA4000F02DA62186B074A02401A6300229A6022
:102EB4004FF000638B60704700ED00E000100240AB
:102EC4000CC07FF8CCFC00FFDFF834D0002103E015
:102ED4000C4B5B58435004310B480C4B42189A423C
:102EE400F6D30B4A02E0002342F8043B094B9A4212
:102EF400F9D3FFF7B5FF00F011F8FDF7F7F9FEE796
:102F04000000012000300008000000200C00002018
:102F14000C000020A4040020FEE7000070B50E4B56
:102F24000E4CE41AA41000251E46A54204D056F8FF
:102F3400253098470135F8E700F016F8084C094B9E
:102F4400E41AA41000251E46A54204D056F82530E4
:102F540098470135F8E770BDF82F0008F82F0008EE
:102F6400FC2F0008F82F0008F8B500BFF8BC08BC17
:102F74009E467047F8B500BFF8BC08BC9E46704733
:102F84005372632F6D61696E2E6300005372632F59
:102F94007274632E630000005372632F74696D2E84
:102FA400630000005372632F75736172742E6300A3
:102FB4005372632F7573622E6300000001020304D1
:102FC40005060708090A0B0C0D0E0F100203040571
:102FD400060708090A0B0C0D0E0F10100000000064
:102FE40000000000010203040607080900000000B5
:042FF40001020304CF
:042FF80001020008CA
:042FFC00D9010008EF
:0C300000100000000100000000127A0027
:0400000508002ECDF4
:00000001FF
